:0600000002003002006066
:0F0030007581707400900101F0D2AFD2A8C28820
:10003F00740090022FF0119911AC7403900234F0F8
:0F004F007F557ECCEE900101F000000000000014
:0E005E0080F97B00900201E0FCB4000132EC5E
:10006C0030E1021189EC30E002117980E990010154
:10007C007401F011997400900210F080EE9001015F
:0F008C007402F011AC7400900211F080D8743837
:10009B00900233F07436900230F07401900230F01D
:0F00AB00227478900233F074A9900231F074033C
:0500BA00900231F0226C
:00000001FF
